:020000040000FA
:100000000C9486000C94B7000C94B7000C94B700C5
:100010000C94B7000C94B7000C94B7000C94B70084
:100020000C94B7000C94B7000C94B7000C94B70074
:100030000C94B7000C94B7000C94B7000C94B70064
:100040000C94B7000C94B7000C94B7000C94B70054
:100050000C94B7000C94B7000C94B7000C940502F4
:100060000C94B7000C9479020C944F020C94B700D6
:100070000C94B7000C94B7000C94B7000C94B70024
:100080000C94B7000C94B7000C94B7000C94B70014
:100090000C94B7000C94B7000C94B7000C94B70004
:1000A0000C94B7000C94B7000C94B7000C94B700F4
:1000B0000C94B7000C94B7000C94B7000C94B700E4
:1000C0000C94B7000C94B7000C94B7000C94B700D4
:1000D0000C94B7000C94B7000C94B7000C94B700C4
:1000E0000C94B7000C94E6000C9409010C94AF0238
:1000F0000C94B1030C94F5000C949C010C94B90081
:100100000C9417010C944F01AF02B10311241FBED0
:10011000CFEFD1E2DEBFCDBF00E00CBF22E0AAE20C
:10012000B2E001C01D92AA3DB207E1F712E0A0E0E3
:10013000B2E0E4EDFBE000E00BBF02C007900D92DF
:10014000AA32B107D9F710E0C5E8D0E000E006C058
:1001500021970109802FFE010E94BA03C438D107FC
:1001600080E00807A9F70E9436030C94D8050C9488
:100170000000AF92BF92CF92DF92EF92FF920F9367
:100180001F93CF93DF936C017B018B01040F151F2D
:10019000EB015E01AE18BF08C017D10759F0699195
:1001A000D601ED91FC910190F081E02DC6011995E9
:1001B000892B79F7C501DF91CF911F910F91FF90A6
:1001C000EF90DF90CF90BF90AF900895FC01538DDA
:1001D000448D252F30E0842F90E0821B930B541721
:1001E00010F0CF96089501970895FC01918D828DAE
:1001F000981761F0A28DAE0FBF2FB11D5D968C9147
:10020000928D9F5F9F73928F90E008958FEF9FEF85
:100210000895FC01918D828D981731F0828DE80F41
:10022000F11D858D90E008958FEF9FEF0895FC01FB
:10023000918D228D892F90E0805C9F4F821B9109C8
:100240008F739927089583E392E00E94170121E0BC
:10025000892B09F420E0822F0895FC01A48DA80FBA
:10026000B92FB11DA35ABF4F2C91848D90E00196F8
:100270008F739927848FA689B7892C93A089B18918
:100280008C91837080648C93938D848D981306C0B9
:100290000288F389E02D80818F7D80830895EF921D
:1002A000FF920F931F93CF93DF93EC0181E0888F30
:1002B0009B8D8C8D98131AC0E889F989808185FF00
:1002C00015C09FB7F894EE89FF896083E889F989A2
:1002D00080818370806480839FBF81E090E0DF91A4
:1002E000CF911F910F91FF90EF900895F62E0B8DF7
:1002F00010E00F5F1F4F0F731127E02E8C8D8E11B2
:100300000CC00FB607FCFACFE889F989808185FF18
:10031000F5CFCE010E942D01F1CFEB8DEC0FFD2F1B
:10032000F11DE35AFF4FF0829FB7F8940B8FEA89D3
:10033000FB8980818062CFCFCF93DF93EC01888DE2
:100340008823B9F0AA89BB89E889F9898C9185FD50
:1003500003C0808186FD0DC00FB607FCF7CF8C91DE
:1003600085FFF2CF808185FFEDCFCE010E942D0168
:10037000E9CFDF91CF91089580E090E0892B29F0BB
:100380000E94230181110E94000080E090E0892BEF
:1003900049F080E090E0892B29F00E940000811153
:1003A0000E94000080E090E0892B49F080E090E01E
:1003B000892B29F00E94000081110E94000080E03A
:1003C00090E0892B49F080E090E0892B29F00E9491
:1003D000000081110C9400000895CF93DF9340E159
:1003E00050E068E172E083E392E00E94B900EC0122
:1003F00042E050E066E272E083E392E00E94B900DE
:100400008C0F9D1FDF91CF9108951F920F920FB611
:100410000F9211242F933F938F939F93AF93BF938A
:1004200080912F0290913002A0913102B09132025E
:1004300030912E0223E0230F2D3768F126E8230F99
:100440000296A11DB11D20932E0280932F0290933E
:100450003002A0933102B093320280912A0290912F
:100460002B02A0912C02B0912D020196A11DB11D6D
:1004700080932A0290932B02A0932C02B0932D021A
:10048000BF91AF919F918F913F912F910F900FBE90
:100490000F901F9018950196A11DB11DD4CF1F92EA
:1004A0000F920FB60F9211240BB60F922F933F931A
:1004B0004F935F936F937F938F939F93AF93BF936C
:1004C000EF93FF9383E392E00E942D01FF91EF9160
:1004D000BF91AF919F918F917F916F915F914F915C
:1004E0003F912F910F900BBE0F900FBE0F901F905A
:1004F00018951F920F920FB60F9211240BB60F9200
:100500002F938F939F93EF93FF93E0914302F0918A
:1005100044028081E0914902F0914A0282FD1DC0AF
:10052000908180914C028F5F8F7320914D028217D2
:1005300041F0E0914C02F0E0ED5CFD4F958F80932F
:100540004C02FF91EF919F918F912F910F900BBED5
:100550000F900FBE0F901F9018958081F2CF1092D0
:1005600036021092350288EE93E0A0E0B0E080936E
:10057000370290933802A0933902B0933A028AE08E
:1005800092E0909334028093330285EC90E0909354
:10059000400280933F0284EC90E09093420280936B
:1005A000410280EC90E0909344028093430281ECFE
:1005B00090E0909346028093450282EC90E0909305
:1005C00048028093470286EC90E090934A02809321
:1005D000490210924C0210924D0210924E0210925B
:1005E0004F021092D1021092D0021092D3021092B8
:1005F000D2021092D5021092D40261E070E090E035
:1006000080E00E94E7040097E1F09093D10280938C
:10061000D0021092D3021092D2022091D4023091D3
:10062000D502232B11F4FC0110821092D5021092F6
:10063000D40268E272E08091D0029091D1020C94D1
:10064000D1058091D0029091D102009711F00E94C3
:100650005E041092D1021092D0021092D502109234
:10066000D4021092D3021092D2020895789484B5E5
:10067000836084BD85B5836085BD80916E00816097
:1006800080936E0092E09093810080918100816060
:1006900080938100809180008160809380008091B0
:1006A000B10084608093B1008091B000816080933C
:1006B000B0008091910083608093910080919000C0
:1006C0008160809390008091A10083608093A1005D
:1006D0008091A00081608093A000809121018360BF
:1006E000809321018091200181608093200187E81F
:1006F00080937A001092C100E0914302F09144028D
:100700009083E0913F02F09140021082E09141021B
:10071000F09142028FEC808310924B02E0914702ED
:10072000F091480286E08083E0914502F091460214
:10073000808188698083E0914502F0914602808142
:100740008F7D80830E94ED010E94ED010E94ED01EA
:100750000E94ED010E94ED010E94ED010E94BC018A
:10076000F1CF8091D0029091D102009711F00C94BA
:100770005E040895EE0FFF1F881F8BBF0790F69150
:10078000E02D19940F931F93CF93DF93823091053F
:1007900010F482E090E0E091D802F091D90230E0CC
:1007A00020E0B0E0A0E0309799F42115310509F47C
:1007B0004AC0281B390B24303105D8F58A819B812A
:1007C0006115710589F1FB0193838283FE0111C0DC
:1007D000408151810281138148175907E0F0481781
:1007E000590799F4109761F012960C93129713968B
:1007F0001C933296CF01DF91CF911F910F910895F5
:100800000093D8021093D902F4CF2115310551F08D
:100810004217530738F0A901DB019A01BD01DF013E
:10082000F801C1CFEF01F9CF9093D9028093D8029C
:10083000CDCFFE01E20FF31F819391932250310936
:1008400039832883D7CF2091D6023091D702232B2A
:1008500041F420910202309103023093D702209399
:10086000D60220910002309101022115310541F498
:100870002DB73EB74091040250910502241B350B61
:10088000E091D602F091D702E217F307A0F42E1BF5
:100890003F0B2817390778F0AC014E5F5F4F2417E4
:1008A000350748F04E0F5F1F5093D7024093D60292
:1008B000819391939FCFF0E0E0E09CCFCF93DF93C3
:1008C0000097E9F0FC01329713821282A091D802BE
:1008D000B091D902ED0130E020E01097A1F4208121
:1008E0003181820F931F2091D6023091D7022817B1
:1008F000390709F061C0F093D702E093D602DF9187
:10090000CF910895EA01CE17DF07E8F54A815B81B0
:100910009E0141155105B1F7E901FB83EA83499135
:100920005991C40FD51FEC17FD0761F480819181A7
:100930000296840F951FE9019983888382819381B0
:100940009B838A83F0E0E0E012968D919C9113974F
:100950000097B9F52D913C911197CD010296820F28
:10096000931F2091D6023091D7022817390739F604
:10097000309751F51092D9021092D802B093D70255
:10098000A093D602BCCFD383C28340815181840F10
:10099000951FC817D90761F44E5F5F4F8881998111
:1009A000480F591F518340838A819B81938382839F
:1009B0002115310509F0B0CFF093D902E093D802A8
:1009C0009ECFFD01DC01C0CF13821282D7CF4F92A0
:1009D0005F926F927F928F929F92AF92BF92CF92CF
:1009E000DF92EF92FF920F931F93CF93DF938C01CF
:1009F000009799F4CB01DF91CF911F910F91FF9058
:100A0000EF90DF90CF90BF90AF909F908F907F90AE
:100A10006F905F904F900C94C203FC01E60FF71F9C
:100A20009C0122503109E217F30708F4AEC0D90146
:100A3000CD91DC911197C617D70720F1C530D105AC
:100A400078F0CE0104978617970750F0C61BD70B96
:100A50002297C193D1936D937C93CF010E945E0442
:100A6000C801DF91CF911F910F91FF90EF90DF9020
:100A7000CF90BF90AF909F908F907F906F905F903E
:100A80004F9008955B01AC1ABD0A4C018C0E9D1E5F
:100A9000A091D802B091D902512C412CF12CE12C1B
:100AA000109731F58091D6029091D702881599055B
:100AB00009F05CC04616570608F058C08091000245
:100AC00090910102009741F48DB79EB740910402C6
:100AD00050910502841B950BE817F90708F055C0E3
:100AE000F093D702E093D602F90171836083B8CF07
:100AF0008D919C91119712966C90129713967C9001
:100B00001397A815B90559F56C0142E0C40ED11C24
:100B1000CA14DB0420F1AC014A195B09DA01129610
:100B2000159780F06282738251834083D9016D935F
:100B30007C93E114F10471F0D7011396FC93EE93CA
:100B400012978ECF22968C0F9D1FF901918380837F
:100B5000F301EFCFF093D902E093D80281CF48168A
:100B6000590608F42C017D01D3019ACFCB010E94D4
:100B7000C2037C01009749F0AE01B8010E94C8058C
:100B8000C8010E945E0487016BCF10E000E068CFCF
:100B9000FB01DC0102C001900D9241505040D8F79A
:100BA0000895FB01DC0101900D920020E1F708950A
:100BB00010E0C5E8D0E000E006C0802FFE010E94F2
:100BC000BA032196011DC638D10780E00807A9F7AE
:100BD000F894FFCF0000DA028000000000004F010F
:100BE000B900E6009C011701F50009015465737412
:0E0BF0002073616A6120696E692E0D0A000093
:020000040003F7
:10FE0000112424B614BE80E088D021FE49C18EE0C2
:10FE100084D0E0ECF0E0AFE7BFEF6099FECF9096C2
:10FE2000609BFDCFB4831197F1F7B2E0B083B8E1E6
:10FE3000B1835FD0C82F8235D1F475D0E0E0FDEFFB
:10FE400093E09BBFA8959F017E2F67916F3F11F4B0
:10FE5000E713FBCFF9019BBF19F083E0A2D0A0D03C
:10FE6000F15091099BBF70F78FE83CD0E2CF8D7FB6
:10FE7000D9F44CD0D82FA0E0B2E03BD08D93DA1368
:10FE8000FCCFA0E0B2E04FD0C1110CC0F2BDE1BD8B
:10FE90008D9180BDFA9AF99A3196F999FECFD15099
:10FEA000A9F7E2CF4BD0E0CFC33041F42FD0C82F19
:10FEB0003AD0879117D0C150E1F7D6CFC13061F465
:10FEC00025D0C82F30D0F2BDE1BDF89A80B50AD058
:10FED0003196C150C1F7C8CFC13511F488E01DD0AB
:10FEE00022D0C2CF9091C00095FFFCCF8093C60076
:10FEF00008952F9A279A8091C00087FFFCCF84FD38
:10FF000015C0A8958091C6002F980895F2DFE82FBC
:10FF1000F0DFF82FEEDF8BBFECCF98E1909360001D
:10FF2000809360000895E5DF803219F088E0F5DF06
:10FF3000FFCF80EAD7CF6BBFFA01DC01E0707A2FE8
:10FF40006BB7FE3F83E0680788F5603039F4309680
:10FF500029F48FEF8D938EEC8C93119790E047915D
:10FF60005D91451391605F3F09F092604523451311
:10FF70009460A713F4CFF1506BBFBA9590FF16C0F1
:10FF800092FF04C083E00DD091FF0AC081E00D9084
:10FF90001D9007D03296A713FACFF15085E001D01B
:10FFA00081E187BFE89517B610FCFDCF11240895B5
:06FFFA0002289CCFE74045
:00000001FF
